:0400000047EF00F0D6
:100008005582E9CF20F0EACF21F0E1CF22F0E2CF0C
:1000180023F0D9CF24F0DACF25F0F3CF26F0F4CFB0
:1000280027F0F6CF28F0F7CF29F0F8CF2AF0F5CF50
:100038002BF0A3A422EF00F024EF00F02DEF00F046
:10004800A4A429EF00F02BEF00F02DEF00F054EC02
:1000580004F02BC0F5FF2AC0F8FF29C0F7FF28C01D
:10006800F6FF27C0F4FF26C0F3FF25C0DAFF24C03F
:10007800D9FF23C0E2FF22C0E1FF21C0EAFF20C070
:10008800E9FF559211003BEF1AF00001EE51800B89
:100098000101EF6F0001EE51EE250101F56F00013E
:1000A800EDAF59EF00F05BEF00F05DEF00F00101FC
:1000B800F5810101F551D8B464EF00F066EF00F066
:1000C8007BEF00F0F529D8A46CEF00F06EEF00F09C
:1000D80077EF00F0000E0001EB6F000EEC6F000EE2
:1000E800ED6F000EEE6F0001ED8F84EF00F0000E53
:1000F8000001EB6F000EEC6F000EED6F000EEE6F5F
:10010800F251800B0101EF1B0001F251F2250101B0
:10011800F06F0001F1AF93EF00F095EF00F097EF6B
:1001280000F00101F0810101F051D8B49EEF00F018
:10013800A0EF00F0B5EF00F0F029D8A4A6EF00F08A
:10014800A8EF00F0B1EF00F0000E0001EF6F000E15
:10015800F06F000EF16F000EF26F0001F18FBEEF2D
:1001680000F0000E0001EF6F000EF06F000EF16F4F
:10017800000EF26F0101F051D8B4C5EF00F0C7EFDF
:1001880000F0CFEF00F0F551D8A4CDEF00F0CFEF9D
:1001980000F0DAEF00F0000E0001EB6F000EEC6FDC
:1001A800000EED6F000EEE6FA5EF02F00001F151A9
:1001B800EB03F3CFFAF1F4CFFBF10101FA51F16F40
:1001C800F26BF36BF46BFB51F66FF76BF86BF96B33
:1001D8000001F051EC03F3CFFAF1F4CFFBF1010188
:1001E800FA51F127000EF223F323F423FB51F627EB
:1001F800000EF723F823F9230001EF51ED03F3CFA5
:10020800FAF1F4CFFBF10101FA51F127000EF223C4
:10021800F323F423FB51F627000EF723F823F923E1
:10022800F3C1F4F1F2C1F3F1F1C1F2F1F16B0001A4
:10023800EF51EC03F3CFFAF1F4CFFBF10101FA51DE
:10024800F127FB51F223000EF323000EF4230001E3
:10025800F051EB03F3CFFAF1F4CFFBF10101FA51BE
:10026800F127FB51F223000EF323000EF423F3C110
:10027800F4F1F2C1F3F1F1C1F2F1F16B0001EF51C8
:10028800EB03F3CFFAF1F4CFFBF10101FA51F127B7
:10029800FB51F223000EF323000EF4230001F15169
:1002A800EC03F3CFFAF1F4CFFBF10101FA51F62791
:1002B800FB51F723000EF823000EF9230001F0513B
:1002C800ED03F3CFFAF1F4CFFBF10101FA51F62770
:1002D800FB51F723000EF823000EF9230001F1511A
:1002E800ED03F3CFFAF1F4CFFBF10101FA5100016C
:1002F800F36F0101FB510001F46FF56BF66BF5C06C
:10030800F6F0F4C0F5F0F3C0F4F0F36BF35101012B
:10031800F6270001F4510101F7230001F55101010D
:10032800F8230001F6510101F923F1C1F3F0F2C1FC
:10033800F4F0F3C1F5F0F4C1F6F0190EAAEF01F0EC
:100348000001D890F633F533F433F333E82EA4EFF5
:1003580001F0F3510101F6270001F4510101F723DF
:100368000001F5510101F8230001F6510101F923BB
:10037800F3C1F4F1F2C1F3F1F1C1F2F1F16BF05113
:10038800F5C1F3F00001F46BF327000EF423820E9D
:10039800F3250101FA6FFF0E0001F4210101FB6F43
:1003A800EBEF01F0D890F637F737F837F937F4AFB5
:1003B800E0EF01F0E2EF01F0E3EF01F0F681D89011
:1003C800F137F237F337F437FA07D8A0FB07F8AF5D
:1003D800F0EF01F0F2EF01F0D6EF01F0000EF06F50
:1003E800F4AFF9EF01F0FBEF01F028EF02F0FF0E98
:1003F800F1150001F36FFF0E0101F2150001F46F12
:10040800FF0E0101F3150001F56F7F0E0101F415D0
:100418000001F66FF351F411F511F611D8B417EF86
:1004280002F019EF02F01EEF02F0010E0101F06F69
:1004380028EF02F00101F6A124EF02F026EF02F006
:1004480028EF02F019EF02F0F051D8B42EEF02F0C5
:1004580030EF02F056EF02F0010EF627000EF723F8
:10046800F823F923F9A13BEF02F03DEF02F056EF34
:1004780002F0F6C1F3F0F7C1F4F0F8C1F5F0F9C1F4
:10048800F6F00001F635F633F533F433F333F3C001
:10049800F6F1F4C0F7F1F5C0F8F1F6C0F9F1010191
:1004A800FA4BFB2BFBBF61EF02F0FB5108E1FA2985
:1004B800D8A061EF02F063EF02F06DEF02F0000EDA
:1004C800F66F000EF76F800EF86F7F0EF96F9BEFD7
:1004D80002F0FBBF7AEF02F0FB5106E1FA05D8B053
:1004E80078EF02F07AEF02F086EF02F0000EF66F76
:1004F800000EF76F000EF86F000EF96F000EEF6F29
:100508009BEF02F0FAC1F5F1FF0EF617FF0EF71791
:100518007F0EF817000EF917F5A195EF02F097EF87
:1005280002F098EF02F0F88FD890F531F96FEF519B
:10053800F913F6C1EBF0F7C1ECF0F8C1EDF0F9C131
:10054800EEF0120004013205D8A4ADEF02F0AFEFCF
:1005580002F0CBEF02F030511F0B0009D8A4B7EF1F
:1005680002F0B9EF02F0CBEF02F00001A98F030E01
:1005780004013119D8A4C3EF02F0C5EF02F0C9EFA6
:1005880002F0010E4A6ECBEF02F0000E4A6E3251B5
:10059800D8A4D1EF02F0D3EF02F053EF04F03051BA
:1005A8001F0B020AD8A4DBEF02F0DDEF02F053EFD5
:1005B80004F034510F0B0009D8B4E5EF02F0E7EF6F
:1005C80002F053EF04F034510F0B156E030E156053
:1005D800F0EF02F0F2EF02F053EF04F0200E4D18A6
:1005E800D8A4F9EF02F0FBEF02F053EF04F000019A
:1005F800A98F040134BF03EF03F005EF03F022EFE6
:1006080003F034510F0B156E1550020DA00EF32494
:10061800D96E000EF420DA6EDECF1AF0DDCF1BF0B3
:1006280034510F0B156E166AB80E1524D96E000ECC
:100638001620DA6EDF50196E3DEF03F034510F0BC0
:10064800156E1550020D9A0EF324D96E000EF42083
:10065800DA6EDECF1AF0DDCF1BF034510F0B156EBA
:10066800166ABB0E1524D96E000E1620DA6EDF50FE
:10067800196E19B042EF03F044EF03F04CEF03F0AA
:10068800FB0E1A141A6EFF0E1B141B6E51EF03F0AB
:10069800040E1A101A6E1B501B6E34BF56EF03F06F
:1006A80058EF03F069EF03F034510F0B156E155036
:1006B800020DA00EF324D96E000EF420DA6E1AC0D3
:1006C800DEFF1BC0DDFF78EF03F034510F0B156E12
:1006D8001550020D9A0EF324D96E000EF420DA6E2E
:1006E8001AC0DEFF1BC0DDFF030E3119D8A47FEF4F
:1006F80003F081EF03F0BBEF03F01AC0D9FF1BC072
:10070800DAFFDFAE8AEF03F08CEF03F0ADEF03F012
:1007180034BF91EF03F093EF03F0A1EF03F03451EE
:100728000F0B156E166AB80E1524D96E000E16201A
:10073800DA6E0001DF82ADEF03F034510F0B156E56
:10074800166ABB0E1524D96E000E1620DA6E00014B
:10075800DF821AC0D9FF1BC0DAFF000EDB841AC083
:10076800D9FF1BC0DAFF000EDB8E53EF04F0040E36
:100778001A181A6E1B501B6E1AC0D9FF1BC0DAFF5D
:10078800DFAEC9EF03F0CBEF03F0E7EF03F01AC0D9
:10079800D9FF1BC0DAFF7F0EDF161AC0D9FF1BC0B6
:1007A800DAFF000EDB8C000E0E6E050E0D6E1AC001
:1007B8000FF01BC010F0000E126E020E116E87ECC7
:1007C80018F0EDEF03F01AC0D9FF1BC0DAFF000ED6
:1007D800DB8C040E1A181A6E1B501B6E19B2F7EF39
:1007E80003F0F9EF03F004EF04F01AC0D9FF1BC0BF
:1007F800DAFFDFAE02EF04F004EF04F03CEF04F0A0
:10080800040134BF0AEF04F00CEF04F01AEF04F00F
:1008180034510F0B156E166AB80E1524D96E000EDA
:100828001620DA6E0001DF9226EF04F034510F0B28
:10083800156E166ABB0E1524D96E000E1620DA6ED8
:100848000001DF921AC0D9FF1BC0DAFF3B0EDF168A
:10085800000E0E6E050E0D6E1AC00FF01BC010F0C4
:10086800000E126E020E116E87EC18F042EF04F0C3
:100878001AC0D9FF1BC0DAFF3B0EDF160401345142
:100888000F0B156E166A6A0E1524176E0F0E1620BA
:10089800186E17C0D9FF18C0DAFFFE0EDF16120057
:1008A8004D04D8A45AEF04F05CEF04F069EF04F0AB
:1008B80060BA61EF04F063EF04F069EF04F0000E32
:1008C800656E64806488020E4D6E65A46EEF04F058
:1008D80070EF04F07AEF04F064A475EF04F077EF9A
:1008E80004F07AEF04F0659455EC1CF060A27FEFF9
:1008F80004F081EF04F084EF04F0A49467EF05F0AE
:1009080065A089EF04F08BEF04F098EF04F064A081
:1009180090EF04F092EF04F098EF04F08DEC0BF0F8
:10092800A384040E4D6E659065A89DEF04F09FEFBB
:1009380004F0A8EF04F064A8A4EF04F0A6EF04F014
:10094800A8EF04F042EC1DF065ACADEF04F0AFEF9A
:1009580004F0DAEF04F064ACB4EF04F0B6EF04F09E
:10096800C4EF04F0000E0E6E730E0D6E000E0F6EC7
:10097800000E106E000E126E010E116E87EC18F04C
:10098800659CB0EC1CF04750D8B4CDEF04F0CFEF25
:1009980004F0D0EF04F047064750D8A4D6EF04F08F
:1009A800D8EF04F0DAEF04F00BEC13F065AADFEFF0
:1009B80004F0E1EF04F0EAEF04F064AAE6EF04F0D3
:1009C800E8EF04F0EAEF04F044EC1BF065A2EFEF67
:1009D80004F0F1EF04F007EF05F064A2F6EF04F07D
:1009E800F8EF04F007EF05F07F0E0E6E0D68000EAD
:1009F8000F6E000E106E000E126E010E116E87EC57
:100A080018F0000E676E040E4D600DEF05F00FEF45
:100A180005F012EF05F0A49467EF05F064A617EF50
:100A280005F019EF05F066EF05F0000E1F6E65A6DC
:100A380020EF05F022EF05F066EF05F061CF51F0E9
:100A48005130E832E8320F0B496E659651B42FEFFA
:100A580005F031EF05F03BEF05F0B80E4924D96EEB
:100A6800DA6A000EDA220001DF7043EF05F0BB0EF0
:100A78004924D96EDA6A000EDA220001DF70495083
:100A8800D8A449EF05F04BEF05F04FEF05F0D1EC96
:100A980014F05DEF05F0000E0E6E720E0D6E510E25
:100AA8000F6E000E106E000E126E000E116E87ECA7
:100AB80018F01F2A030E1F6464EF05F066EF05F0B7
:100AC8001BEF05F0A4941200A3940001D051D1119A
:100AD800D8B471EF05F073EF05F081EF05F0D0C0E1
:100AE800D9FFD1C0DAFFDFAE7CEF05F07EEF05F06D
:100AF80081EF05F0A3844BEF06F0030E4E18D8A43F
:100B080088EF05F08AEF05F08CEF05F0000E4E6EC9
:100B18004E50D8A492EF05F094EF05F097EF05F04A
:100B2800A3844BEF06F0020E4E18D8A49EEF05F0F2
:100B3800A0EF05F0B3EF05F0010EDD6F000EDE6FDC
:100B4800000EDF6F000EE06F020ED5EC0CF0DDC07A
:100B5800D0F0DEC0D1F0030E4E6E4AEF06F04E0420
:100B6800D8A4B9EF05F0BBEF05F04AEF06F0400E48
:100B7800DA65C1EF05F0C3EF05F0C7EF05F0400EE9
:100B8800E96FC9EF05F0DAC0E9F0E951DA5DDA6F2B
:100B9800000EBE6F050EBF6FE9C0E8F0D951D8A4AA
:100BA800D8EF05F0DAEF05F01CEF06F0F7EF05F0E7
:100BB800C1C0F6FFC2C0F7FFF86ABEC0D9FFBFC008
:100BC800DAFF070EF76403D00800F55005D0F6CF1A
:100BD800E9FFF7CFEAFFEF50DF6E0001BE4BBF2BF6
:100BE800C14BC22BE807E851D8A4FDEF05F0FFEF91
:100BF80005F0DCEF05F024EF06F0C1C0F6FFC2C037
:100C0800F7FFF86ABEC0D9FFBFC0DAFF070EF76466
:100C180003D00800F55005D0F6CFE9FFF7CFEAFF7B
:100C2800EF50DF6E0001BE4BBF2BC14BC22BE80754
:100C3800E851D8A422EF06F024EF06F001EF06F001
:100C4800DA51D8A42AEF06F02CEF06F03BEF06F0B5
:100C5800400EE919D8A433EF06F035EF06F039EF66
:100C680006F0020E4E6E3BEF06F0030E4E6E010EBE
:100C7800DD6F000EDE6F050EDF6FE9C0E0F0020EDB
:100C8800D5EC0CF0DDC0D0F0DEC0D1F0A3841200AA
:100C98000001E56F0001E551D8B455EF06F057EFB4
:100CA80006F079EF06F0E0BF5EEF06F05CEF06F0C5
:100CB80079EF06F0DDC0E1F0DEC0E2F0DFC0E3F07E
:100CC800E0C0E4F0E11FE21FE31FE41FE12B000E88
:100CD800E223E323E423E1C0E7F0E2C0E8F0E3C065
:100CE800E9F0E4C0EAF081EF06F0DDC0E7F0DEC02D
:100CF800E8F0DFC0E9F0E0C0EAF0DD51DE11DF1115
:100D0800E011D8A48AEF06F08CEF06F096EF06F013
:100D1800000EDD6F000EDE6F000EDF6F000EE06F5D
:100D280027EF07F0960EE66FA0EF06F0E62BD890B7
:100D3800EA33E933E833E733000EE715E16F000ED5
:100D4800E815E26F000EE915E36FFE0EEA15E46F91
:100D5800E151E211E311E411D8A4B5EF06F0B7EFC1
:100D680006F09AEF06F0C5EF06F0E62B010EE7272E
:100D7800000EE823E923EA23D890EA33E933E8337D
:100D8800E733000EE715E16F000EE815E26F000E7D
:100D9800E915E36FFF0EEA15E46FE151E211E31183
:100DA800E411D8A4DAEF06F0DCEF06F0B9EF06F0AC
:100DB800E4EF06F0E607D890E737E837E937EA378F
:100DC800E9BFE9EF06F0EBEF06F0F3EF06F0020EED
:100DD800E661F1EF06F0F3EF06F0DEEF06F0E6B1BC
:100DE800F8EF06F0FAEF06F0FBEF06F0E99FD8906F
:100DF800E633E6C0E1F0E26BE36BE46BE1C0E4F0FC
:100E0800E36BE26BE16BE151E713E251E813E35165
:100E1800E913E451EA13E551D8B415EF07F017EFD9
:100E280007F01FEF07F0E0BF1EEF07F01CEF07F019
:100E38001FEF07F0EA8FE7C0DDF0E8C0DEF0E9C099
:100E4800DFF0EAC0E0F01200010E0001646F010E4D
:100E5800706F010E716F010E726F000E666FF50EE6
:100E6800656F060E676F000E686F000E696F000EE3
:100E78006A6F000E6B6F000E6C6F000E6D6F000EC8
:100E88006E6F000E6F6F010E736F010E746F010E9F
:100E9800776F010E786F010E796F020E756F060E6F
:100EA800766F7A69000E7B6F000E7C6F010E7D6F86
:100EB800040E7E6F070E7F6F000E806F030E816F2A
:100EC800030E826F000E836F000E846F010E856F14
:100ED800000EE06F000EDF6F540EDD6F010EDE6F47
:100EE800D890DF35D96EE035DA6ED890D936DA3653
:100EF800DD51D926DE51DA22000EDE6E000EDE6EDE
:100F0800000EDE6E000EDD6E480EDD6F010EDE6F28
:100F1800D890DF35D96EE035DA6ED890D936DA3622
:100F2800DD51D926DE51DA22000EDE6E000EDE6EAD
:100F3800000EDE6E000EDD6E3C0EDD6F010EDE6F04
:100F4800D890DF35D96EE035DA6ED890D936DA36F2
:100F5800DD51D926DE51DA22000EDE6E000EDE6E7D
:100F6800000EDE6E000EDD6ED890DF35D96EE035EE
:100F7800DA6E940ED926000EDA22000EDE6E000E0E
:100F8800DD6ED890DF35D96EE035DA6E8E0ED92653
:100F9800000EDA22000EDE6E000EDD6ED890DF3510
:100FA800D96EE035DA6E7C0ED926010EDA22000EF3
:100FB800DE6E000EDD6EDF4BE02BE0BFEDEF07F0DD
:100FC800E05109E1030EDF5DD8A0EDEF07F0EFEF88
:100FD80007F070EF07F0000ED36F1200000E00014B
:100FE800F86F6451D8B4FBEF07F0FDEF07F013EF8B
:100FF80008F067C0F4F0070EF417050EF56FD890E7
:10100800F437F52F03EF08F0F451F86F13EF08F0F9
:10101800F88732EF08F0180EF81332EF08F020EED8
:1010280065F0DECFF4F0DDCFF5F0F551010AD8B464
:1010380024EF08F0060AD8B42BEF08F032EF08F0D6
:10104800F451F40AD8B40CEF08F032EF08F0F45178
:10105800D00AD8B40FEF08F032EF08F06851030B4C
:10106800F813F8C0F2F0100EAAEC1DF0000E000103
:10107800F26F110EAAEC1DF000016951D8A447EFD8
:1010880008F049EF08F04FEF08F0000EF76F000E78
:10109800F66F53EF08F0000EF76F800EF66FF6C08C
:1010A800F8F06A51D8B45BEF08F05DEF08F061EF33
:1010B80008F06B510F0B4009F813F8C0F2F0120E4C
:1010C800AAEC1DF0000E0001F86F7251D8B46FEF52
:1010D80008F071EF08F072EF08F0F88B7151D8B48E
:1010E80078EF08F07AEF08F07BEF08F0F889705194
:1010F800D8B481EF08F083EF08F084EF08F0F887A0
:101108007351D8B48AEF08F08CEF08F08DEF08F02F
:10111800F883F8C0F2F01E0EAAEC1DF0000E0001D4
:10112800F86F6C51D8B49BEF08F09DEF08F09EEF74
:1011380008F0F88B6D51D8B4A4EF08F0A6EF08F0CA
:10114800A7EF08F0F8896E51D8B4ADEF08F0AFEF0B
:1011580008F0B0EF08F0F887F8C0F2F0130EAAEC28
:101168001DF01200DDC0E7F0DEC0E8F00001E1513B
:10117800E211D8A4C2EF08F0C4EF08F0C6EF08F0F7
:1011880071EF09F0E7C0D9FFE8C0DAFFDFC0DFFF81
:10119800E151E725E36FE251E821E46FFF0EE32513
:1011A800D96EFF0EE421DA6EDFC0DFFFE25107E1FE
:1011B800030EE15DD8B0E3EF08F0E5EF08F0E7EFE4
:1011C80008F071EF09F020EE01F0E751D926E85157
:1011D800DA22DFC0DFFF20EE02F0E751D926E8511E
:1011E800DA22DFC0DFFFE151E725E36FE251E821B2
:1011F800E46FFE0EE325D96EFF0EE421DA6EDFC040
:10120800DFFFE151E725E36FE251E821E46FFD0ECE
:10121800E325D96EFF0EE421DA6EDFC0DFFFE2516D
:1012280007E1070EE15DD8B01CEF09F01EEF09F0E9
:1012380020EF09F071EF09F020EE03F0E751D9260D
:10124800E851DA22DFC0DFFFE151E725E36FE25121
:10125800E821E46FFC0EE325D96EFF0EE421DA6E77
:10126800DFC0DFFFE25107E1090EE15DD8B03FEFD3
:1012780009F041EF09F043EF09F071EF09F0E7C019
:10128800E3F0E8C0E4F0E31FE41FE34BE42B030EB4
:10129800E315E56FE66BE551E727E651E823E551ED
:1012A800E15FE651E25BFC0EE117FF0EE21768EF23
:1012B80009F0E7C0D9FFE8C0DAFFDFC0DFFFE107C8
:1012C800D8A0E207E74BE82BE151E211D8A46FEF71
:1012D80009F071EF09F05DEF09F0120001C00BF0A1
:1012E80002C00CF005500610D8A47DEF09F07FEF7E
:1012F80009F081EF09F02CEF0AF00BC0D9FF0CC000
:10130800DAFF03C0DFFF05500B24076E06500C20E0
:10131800086EFF0E0724D96EFF0E0820DA6E03C090
:10132800DFFF065007E1030E055CD8B09EEF09F019
:10133800A0EF09F0A2EF09F02CEF0AF020EE01F07F
:101348000B50D9260C50DA2203C0DFFF20EE02F042
:101358000B50D9260C50DA2203C0DFFF05500B24AE
:10136800076E06500C20086EFE0E0724D96EFF0E7D
:101378000820DA6E03C0DFFF05500B24076E065005
:101388000C20086EFD0E0724D96EFF0E0820DA6EB9
:1013980003C0DFFF065007E1070E055CD8B0D7EFA2
:1013A80009F0D9EF09F0DBEF09F02CEF0AF020EE95
:1013B80003F00B50D9260C50DA2203C0DFFF05508A
:1013C8000B24076E06500C20086EFC0E0724D96EFD
:1013D800FF0E0820DA6E03C0DFFF065007E1090E92
:1013E800055CD8B0FAEF09F0FCEF09F0FEEF09F060
:1013F8002CEF0AF00BC007F00CC008F0071E081EFF
:10140800074A082A030E0714096E0A6A09500B26B0
:101418000A500C220950055E0A50065AFC0E0516A1
:10142800FF0E061623EF0AF00BC0D9FF0CC0DAFF37
:1014380003C0DFFF0506D8A006060B4A0C2A055094
:101448000610D8A42AEF0AF02CEF0AF018EF0AF0D9
:101458001200800E04013019D8A435EF0AF037EFD6
:101468000AF0E6EF0AF0C00E0001A96FCCEF0AF00F
:101478003C0E0001A66F7F0EA76F000EAB6F120E19
:10148800AA6FE6EF0AF03251D8A44DEF0AF04FEFF9
:101498000AF090EF0AF03251020D9D0EF324F66E19
:1014A8007E0EF420F76E0900F5CFA6F00A00F5CFFE
:1014B800A7F0020E0001A625016E000EA721026EFC
:1014C80001C0F6FF02C0F7FFF86A070EF76403D001
:1014D8000800F55005D0F6CFE9FFF7CFEAFFEF5047
:1014E8000001AA6F030EA625016E000EA721026E49
:1014F80001C0F6FF02C0F7FFF86A070EF76403D0D1
:101508000800F55005D0F6CFE9FFF7CFEAFFEF5016
:101518000001AB6FE6EF0AF0000E0001A96FE6EFDD
:101528000AF0030E32619BEF0AF09DEF0AF0C2EF5A
:101538000AF03251020D8B0EF324F66E7E0EF42063
:10154800F76E0900F5CFA6F00A00F5CFA7F0A6C000
:10155800F6FFA7C0F7FFF86A070EF76403D0080084
:10156800F55005D0F6CFE9FFF7CFEAFFEF50016E4F
:1015780001500001AA6FAB6BE6EF0AF0000E000104
:10158800A96FE6EF0AF0000E0001A96FE6EF0AF076
:1015980004013351016E026A0250000AD8B4D7EF31
:1015A8000AF0C7EF0AF00150010AD8B43CEF0AF07C
:1015B800030AD8B447EF0AF0010AD8B495EF0AF045
:1015C800C7EF0AF01200A394000E676E000E656E56
:1015D800000E6A6E6B0E0001DD6F0F0EDE6F000EDF
:1015E800E06F000EDF6F000EE26F020EE16FB6ECE7
:1015F80008F0160E626E9F0E666E7B0E646E000E0D
:101608000001E96FE951040D000EF324D96E040EB0
:10161800F420DA6EDE6ADE6ADE6ADD6AE92B0B0E1A
:10162800E96519EF0BF01BEF0BF006EF0BF0608C80
:10163800000E636E6098609C6596000EA96F000EA0
:10164800896F000E8B6F000E8A6F65B62EEF0BF058
:1016580030EF0BF020EF0BF0010E456E010E446EDB
:10166800000E436E000E426E000ED76F000EE96F3B
:10167800E951020D9A0EF324D96E000EF420DA6EA9
:10168800000EDE6E000EDD6EE951020DA00EF32491
:10169800D96E000EF420DA6E000EDE6E000EDD6EDE
:1016A800BB0EE925D96EDA6A000EDA22000EDF6E6B
:1016B800B80EE925D96EDA6A000EDA22000EDF6E5E
:1016C800E92B020EE9656BEF0BF06DEF0BF03CEFC9
:1016D8000BF0080E9A6F040E9B6F160E6A6E040EBE
:1016E8000401036F300E026F100E016F040E006FBD
:1016F800008F000E526E000E0001B46F000EB56F21
:10170800000EB66F000EB76F000ED66F000E4D6E4E
:101718001200A394000E676E000E656E000E6A6ECE
:101728006B0E016E0F0E026E000E046E000E036E3D
:10173800000E066E020E056E72EC09F0160E626E51
:101748009F0E666E7B0E646E000E0D6E0D50040DBE
:10175800000EF324D96E040EF420DA6EDE6ADE6A17
:10176800DE6ADD6A0D2A0B0E0D64BDEF0BF0BFEFCC
:101778000BF0AAEF0BF0608C000E636E6098609C13
:101788006596000E0001A96F000E896F000E8B6F21
:10179800000E8A6F65B6D3EF0BF0D5EF0BF0C4EFF0
:1017A8000BF0010E456E010E446E000E436E000EE6
:1017B800426E000ED76F000E0D6E0D50020D9A0E80
:1017C800F324D96E000EF420DA6E000EDE6E000EE1
:1017D800DD6E0D50020DA00EF324D96E000EF4201C
:1017E800DA6E000EDE6E000EDD6EBB0E0D24D96EB5
:1017F800DA6A000EDA22000EDF6EB80E0D24D96EFA
:10180800DA6A000EDA22000EDF6E0D2A020E0D646F
:1018180010EF0CF012EF0CF0E1EF0BF0080E0001E6
:101828009A6F040E9B6F160E6A6E040E0401036F06
:10183800300E026F100E016F040E006F008F000E45
:10184800526E000E0001B46F000EB56F000EB66F39
:10185800000EB76F000ED66F000E4D6E120020EE10
:1018680001F03E50D9263F50DA22DF50026E025076
:1018780000018A5D000E8B59D8B045EF0CF047EF98
:101888000CF049EF0CF08AC002F002508A5F000E9B
:101898008B5B000E016E60EF0CF0400E0124D96ED8
:1018A800DA6A040EDA2286C0E1FF87C0E2FFDFCFE2
:1018B800E7FF864B872B012A0250015CD8A067EF0F
:1018C8000CF069EF0CF051EF0CF08A518B11D8B481
:1018D80070EF0CF072EF0CF0ABEF0CF020EE01F0B3
:1018E8003C50D9263D50DA22100EDF6E20EE02F071
:1018F8003C50D9263D50DA22400EDE6E040EDD6ED5
:101908003EC0D9FF3FC0DAFFDFBC8DEF0CF08FEF90
:101918000CF09DEF0CF03CC0D9FF3DC0DAFF480E3B
:10192800DF6E3CC0D9FF3DC0DAFF000EDB8ED4EF7E
:101938000CF03CC0D9FF3DC0DAFF080EDF6E3CC09A
:10194800D9FF3DC0DAFF000EDB8ED4EF0CF020EE9D
:1019580001F03C50D9263D50DA22100EDF6E20EE01
:1019680002F03C50D9263D50DA22300EDE6E040ECD
:10197800DD6E3CC0D9FF3DC0DAFF040EDF6E3CC00F
:10198800D9FF3DC0DAFF000EDB8E899F4650D8A4F0
:10199800D0EF0CF0D2EF0CF0D4EF0CF00BEC13F00E
:1019A80012000001E56F0001DD51D8B4DEEF0CF044
:1019B800E0EF0CF0EEEF0CF0E551020D9A0EF32477
:1019C800D96E000EF420DA6EDECFE6F0DDCFE7F058
:1019D800FAEF0CF0E551020DA00EF324D96E000EBB
:1019E800F420DA6EDECFE6F0DDCFE7F0E651E7115E
:1019F800D8A401EF0DF003EF0DF009EF0DF0000E84
:101A0800DD6F000EDE6F75EF0DF020EE02F0E6518F
:101A1800D926E751DA22DEC0DEFFDFC0DDFF20EE87
:101A280001F0E651D926E751DA22E0C0DFFFE6C02F
:101A3800D9FFE7C0DAFF400EDF16E6C0D9FFE7C0DE
:101A4800DAFF000EDB86E6C0D9FFE7C0DAFF000E3A
:101A5800DB8EDD51D8B433EF0DF035EF0DF054EFD8
:101A68000DF0E551020D9A0EF324D96E000EF42004
:101A7800DA6EDECFE1F0DDCFE2F0040EE119E36FBC
:101A8800E251E46FE551020D9A0EF324D96E000E6F
:101A9800F420DA6EE3C0DEFFE4C0DDFF71EF0DF085
:101AA800E551020DA00EF324D96E000EF420DA6E73
:101AB800DECFE1F0DDCFE2F0040EE119E36FE25191
:101AC800E46FE551020DA00EF324D96E000EF42048
:101AD800DA6EE3C0DEFFE4C0DDFFE6C0DDF0E7C09C
:101AE800DEF0120060980001A9BF7DEF0DF07FEFD6
:101AF8000DF0C4EF0DF089AF84EF0DF086EF0DF017
:101B080098EF0DF0020E4B6E4250D8A48EEF0DF0F8
:101B180090EF0DF092EF0DF02DEC15F0000E446EE5
:101B2800000E456E16EF0EF020EE01F03C50D9265F
:101B38003D50DA22100EDF6E20EE02F03C50D9261E
:101B48003D50DA22300EDE6E040EDD6E3CC0D9FF49
:101B58003DC0DAFF0C0EDF6E3CC0D9FF3DC0DAFF96
:101B6800000EDB8E9AC0D9FF9BC0DAFF040EDF6E31
:101B78009AC0D9FF9BC0DAFF000EDB8E16EF0EF07D
:101B8800040130AFCAEF0DF0CCEF0DF0E8EF0DF027
:101B9800010E4B6E4350D8A4D4EF0DF0D6EF0DF0E4
:101BA800D8EF0DF02DEC15F0000E446E000E456ECA
:101BB8004650D8A4E2EF0DF0E4EF0DF016EF0EF06A
:101BC8000BEC13F016EF0EF0020E4B6E20EE01F048
:101BD8003C50D9263D50DA22100EDF6E20EE02F07E
:101BE8003C50D9263D50DA22300EDE6E040EDD6EF2
:101BF8003CC0D9FF3DC0DAFF040EDF6E3CC0D9FF00
:101C08003DC0DAFF000EDB8E000E446E000E456EFE
:101C18004650D8A412EF0EF014EF0EF016EF0EF0A7
:101C2800E4EF0DF01200096E0150D8B41EEF0EF06B
:101C380020EF0EF02EEF0EF00950020D9A0EF3244D
:101C4800D96E000EF420DA6EDECF0AF0DDCF0BF08D
:101C58003AEF0EF00950020DA00EF324D96E000ED3
:101C6800F420DA6EDECF0AF0DDCF0BF00A500B104D
:101C7800D8A441EF0EF043EF0EF049EF0EF0000E3E
:101C8800016E000E026EB5EF0EF020EE02F00A5063
:101C9800D9260B50DA2202C0DEFF03C0DDFF20EE9A
:101CA80001F00A50D9260B50DA2204C0DFFF0AC01F
:101CB800D9FF0BC0DAFF400EDF160AC0D9FF0BC0F0
:101CC800DAFF000EDB860AC0D9FF0BC0DAFF000E70
:101CD800DB8E0150D8B473EF0EF075EF0EF094EF71
:101CE8000EF00950020D9A0EF324D96E000EF4205E
:101CF800DA6EDECF05F0DDCF06F0040E0518076EAC
:101D08000650086E0950020D9A0EF324D96E000E83
:101D1800F420DA6E07C0DEFF08C0DDFFB1EF0EF079
:101D28000950020DA00EF324D96E000EF420DA6ECD
:101D3800DECF05F0DDCF06F0040E0518076E06505D
:101D4800086E0950020DA00EF324D96E000EF4207F
:101D5800DA6E07C0DEFF08C0DDFF0AC001F00BC065
:101D680002F0120011EC1EF0F28EF28C3D0E010111
:101D7800FD6FE10EFC6F3F0EE82EFED7FC2FFCD75F
:101D8800FD2FFAD700D0100E0101FC6F940EE82E3B
:101D9800FED7FC2FFCD700F01F0E4D64D6EF0EF0D7
:101DA800D8EF0EF0C7EF0EF060A2DDEF0EF0DFEF18
:101DB8000EF0E1EF0EF0C7EF0EF068EC05F0010E43
:101DC8000001C625C66F000EC721C76FE80EC619E9
:101DD80007E1030EC719D8A4F4EF0EF0F6EF0EF0E2
:101DE80001EF0FF080EC16F0F9C0C8F0FAC0C9F0A6
:101DF800000E0001C76F000EC66FC851C911D8A4E4
:101E080008EF0FF00AEF0FF018EF0FF04E50D8A4BC
:101E180010EF0FF012EF0FF018EF0FF08A0EDD6FD2
:101E28007F0EDE6FC7EC19F03D0E0001C81907E1FF
:101E3800680EC919D8A423EF0FF025EF0FF0C7EFEC
:101E48000EF061EC1EF00009D8B42DEF0FF02FEF63
:101E58000FF031EF0FF032EC16F04E50D8A437EFF8
:101E68000FF039EF0FF0C7EF0EF089B23EEF0FF029
:101E780041EF0FF0010E42EF0FF0000EFF0A0101D3
:101E8800FC6FFC478950FC19FD0BFC19896EA9EC05
:101E98001AF0C7EF0EF047EF00F004013039E832CE
:101EA800030B0009D8B45BEF0FF05DEF0FF0AAEF5A
:101EB8000FF0E3EF0FF00001A98F080E4D6EE3EF6E
:101EC8000FF02DEC0AF0E3EF0FF084EC13F0E3EFE2
:101ED8000FF0520E0001A66F000EA76FA981010E28
:101EE800AA6FA98FE3EF0FF0FBEC10F0E3EF0FF010
:101EF800A6EC02F0E3EF0FF0DB0E34250001A66F2D
:101F0800A76B000EA723A981010EAA6FA98FE3EF83
:101F18000FF00001A98FDB0E04013425D96EDA6AAF
:101F2800000EDA2232C4DFFFE3EF0FF0000E0E6E70
:101F3800020E0D6E000E0F6E000E106E000E126E69
:101F4800000E116E87EC18F0E3EF0FF031511C6EA4
:101F58001D6A1D50000AD8B4B4EF0FF0E3EF0FF07C
:101F68001C50000AD8B478EF0FF0010AD8B47CEFFF
:101F78000FF0020AD8B47CEF0FF0060AD8B45FEF6E
:101F88000FF0030AD8B465EF0FF0010AD8B49AEF3E
:101F98000FF00F0AD8B46DEF0FF0010AD8B469EF4B
:101FA8000FF0030AD8B480EF0FF0010AD8B48DEF10
:101FB8000FF0070AD8B4E3EF0FF0E3EF0FF01200C9
:101FC800000E0001F66F7951D8B4EDEF0FF0EFEF86
:101FD8000FF0F0EF0FF0F68B7851D8B4F6EF0FF062
:101FE800F8EF0FF0F9EF0FF0F6897751D8B4FFEF5B
:101FF8000FF001EF10F002EF10F0F687F6C0F2F0E4
:102008001F0EAAEC1DF0000E0001F66F7451D8B433
:1020180010EF10F012EF10F02BEF10F076C0F4F084
:10202800070EF417050EF56FD890F437F52F18EF53
:1020380010F0F451F6132BEF10F0F68944EF10F07E
:10204800180EF61344EF10F0F68744EF10F07551B0
:10205800F46FF56BF551000AD8B435EF10F044EF82
:1020680010F0F451040AD8B421EF10F00C0AD8B4D7
:1020780024EF10F0180AD8B428EF10F044EF10F04D
:102088007ABF49EF10F04BEF10F04FEF10F0F685E4
:102098007A51030BF613F6C0F2F0200EAAEC1DF0ED
:1020A800000E0001F66F7B51D8B45DEF10F05FEFC2
:1020B80010F06DEF10F0F68F7CC0F4F0030EF417FB
:1020C800050EF56FD890F437F52F66EF10F0F45140
:1020D800F613F6C0F2F0210EAAEC1DF01200100E55
:1020E800016E0001AB5107E1100EAA5DD8B07FEF79
:1020F80010F081EF10F099EF10F0AAC001F04C50E9
:10210800D8A489EF10F08BEF10F08FEF10F0010ECC
:102118004C6E99EF10F04C04D8A495EF10F097EF9F
:1021280010F099EF10F0020E4C6E0150AA5F000EED
:10213800AB5B20EE01F09A51D9269B51DA2201C0FF
:10214800DFFF400ECE6F040ECF6FA9B1AEEF10F0D7
:10215800B0EF10F0F2EF10F0CDEF10F0A6C0F6FFE0
:10216800A7C0F7FFF86ACEC0D9FFCFC0DAFF070EC5
:10217800F76403D00800F55005D0F6CFE9FFF7CF94
:10218800EAFFEF50DF6E0001A64BA72BCE4BCF2BFB
:1021980001060150D8A4D3EF10F0D5EF10F0B2EF3C
:1021A80010F0FAEF10F0A6C0F6FFA7C0F7FFF86A24
:1021B800CEC0D9FFCFC0DAFF070EF76403D00800FE
:1021C800F55005D0F6CFE9FFF7CFEAFFEF50DF6E05
:1021D8000001A64BA72BCE4BCF2B01060150D8A44C
:1021E800F8EF10F0FAEF10F0D7EF10F01200000E31
:1021F8000401406F000E416F58EF11F00001A98FE4
:102208004A04D8A40AEF11F00CEF11F072EF11F0A4
:102218000401408372EF11F00001A98F72EF11F0F1
:102228000001A98F040134BF1CEF11F01EEF11F05B
:102238002FEF11F034510F0B016E0150020DA00E5B
:10224800F324D96E000EF420DA6EDECF03F0DDCF72
:1022580004F03EEF11F034510F0B016E0150020DE6
:102268009A0EF324D96E000EF420DA6EDECF03F056
:10227800DDCF04F003C0D9FF04C0DAFFDFAE47EFBB
:1022880011F049EF11F072EF11F003C0D9FF04C04B
:10229800DAFFDFA452EF11F054EF11F072EF11F0F2
:1022A800010E406F72EF11F030511F0B016E026A80
:1022B8000250000AD8B463EF11F072EF11F0015028
:1022C800000AD8B402EF11F0010AD8B410EF11F0E7
:1022D800030AD8B414EF11F072EF11F00001A9AF9E
:1022E80078EF11F07AEF11F081EF11F0400EA66F40
:1022F800040EA76FA981020EAA6F120004013051C3
:102308001F0BE806D8B48BEF11F08DEF11F08FEFAB
:1023180011F007EF12F03039E832030BE806D8B4B1
:1023280098EF11F09AEF11F09CEF11F007EF12F00F
:102338003451D8B4A2EF11F0A4EF11F0E6EF11F088
:102348003405D8B4AAEF11F0ACEF11F0E6EF11F0B4
:1023580007EF12F0E00E0001A66F010EA76F000E46
:10236800AB6F080EAA6FA981A98F07EF12F0E00ED4
:102378000001A66F010EA76FA98F07EF12F036C4F0
:102388008AF037C48BF0E80E0001866F010E876F64
:10239800000E8C6F000E8D6F898F07EF12F0E80E1C
:1023A8000001A66F010EA76F000EAB6F070EAA6F94
:1023B800C10EA96F07EF12F032C4D8F00001A98F3F
:1023C80007EF12F03151016E026A0250000AD8B4C8
:1023D800F0EF11F007EF12F00150000AD8B4AEEF99
:1023E80011F0010AD8B4BBEF11F0210AD8B4C3EF39
:1023F80011F0010AD8B4D3EF11F0030AD8B4E0EF12
:1024080011F007EF12F012009AC0D9FF9BC0DAFF53
:102418000001000EDFBC010E026E040E9A199A6FBD
:102428009B519B6F080E4D18D8A41DEF12F01FEF9B
:1024380012F031EF12F0040132517F0B636E6350DA
:10244800D8B429EF12F02BEF12F02FEF12F0100E84
:102458004D6E31EF12F0040E4D6E4B04D8A437EFD9
:1024680012F039EF12F081EF12F0000120EE02F0C5
:102478009A51D9269B51DA22400EDE6E040EDD6E8B
:1024880073EC10F0020E4C18D8A44DEF12F04FEF79
:1024980012F05DEF12F09AC0D9FF9BC0DAFF040E6C
:1024A800DF6E9AC0D9FF9BC0DAFF000EDB8E8CEF7F
:1024B80012F00250D8A463EF12F065EF12F073EF38
:1024C80012F09AC0D9FF9BC0DAFF480EDF6E9AC09F
:1024D800D9FF9BC0DAFF000EDB8E8CEF12F09AC09A
:1024E800D9FF9BC0DAFF080EDF6E9AC0D9FF9BC0E8
:1024F800DAFF000EDB8E8CEF12F0000189AF87EF58
:1025080012F089EF12F08AEF12F0899F000E4B6EDD
:102518001200000E0001F66F8051D8B496EF12F049
:1025280098EF12F099EF12F0F68F81C0F4F0030ED5
:10253800F417050EF56FD890F437F52F9FEF12F0CA
:10254800F451F6137FC0F4F0070EF417D890F4375F
:10255800D890F435F613F6C0F2F0200E97EC1DF083
:10256800000E0001F66FC3EF12F0F68BDCEF12F0ED
:10257800F68DDCEF12F0600EF613DCEF12F07E51F0
:10258800F46FF56BF551000AD8B4CDEF12F0DCEF1B
:1025980012F0F451080AD8B4B9EF12F0040AD8B40A
:1025A800BCEF12F01C0AD8B4BFEF12F0DCEF12F047
:1025B800F6C0F2F0210E97EC1DF0000E0001F66F48
:1025C8008351D8B4EAEF12F0ECEF12F0EDEF12F00D
:1025D800F68B8451030BF613F6C0F2F0220E97EC3B
:1025E8001DF082C0F4F0030E0001F417D890F43700
:1025F800D890F435F66FF6C0F2F0230E97EC1DF084
:10260800000E0001F26F240E97EC1DF012004550E9
:10261800D8A411EF13F013EF13F083EF13F0010EAA
:10262800456E4450D8A41BEF13F01DEF13F083EF51
:1026380013F0010E446E020E4B18D8A426EF13F0C7
:1026480028EF13F03FEF13F0000120EE01F09A514C
:10265800D9269B51DA22000EDF6E9AC0D9FF9BC0A3
:10266800DAFF480EDF6E9AC0D9FF9BC0DAFF000E72
:10267800DB8E83EF13F04B04D8A445EF13F047EF3C
:1026880013F083EF13F0000E486E20EE01F03E5079
:10269800D9263F50DA22100EDF6E20EE02F03E50AF
:1026A800D9263F50DA22300EDE6E040EDD6E3EC0B3
:1026B800D9FF3FC0DAFF040EDF6E3EC0D9FF3FC02E
:1026C800DAFF000EDB8E010E486E20EE01F03C5062
:1026D800D9263D50DA22100EDF6E20EE02F03C5073
:1026E800D9263D50DA22300EDE6E040EDD6E3CC077
:1026F800D9FF3DC0DAFF800EDF6E83EF13F01200C2
:102708000001A98F6B0E016E0F0E026E000E046E93
:10271800000E036E000E066E020E056E72EC09F0D6
:10272800000E016E040E026E000E046E000E036EA3
:10273800000E066E300E056E72EC09F0608C000E0D
:10274800156EBB0E1524D96EDA6A000EDA22000E59
:10275800DF6EB80E1524D96EDA6A000EDA22000E82
:10276800DF6E152A020E1564BCEF13F0BEEF13F0EE
:10277800A5EF13F0DB0E016E000E026E000E046E64
:10278800000E036E000E066E020E056E72EC09F066
:10279800609C080E00019A6F040E9B6F000E3E6E3F
:1027A800040E3F6E3EC03CF03FC03DF032C452F0D4
:1027B8005250D8A4E2EF13F0E4EF13F0E8EF13F06F
:1027C800100E4D6EF8EF13F0000E0E6E010E0D6E2A
:1027D800520E0F6E000E106E000E126E010E116E6C
:1027E80087EC18F0200E4D6E1200F50E00016519E9
:1027F8006611D8B402EF14F004EF14F01FEF14F0D0
:10280800F40E651908E16605D8B40DEF14F00FEF62
:1028180014F01FEF14F0D00E651909E1070E6619C0
:10282800D8B419EF14F01BEF14F01FEF14F0000EDA
:10283800666FF50E656F020E7519D8B426EF14F0A1
:1028480028EF14F045EF14F0040E7519D8B42FEFE3
:1028580014F031EF14F045EF14F0080E7519D8B4E0
:1028680038EF14F03AEF14F045EF14F0100E751924
:10287800D8B441EF14F043EF14F045EF14F0020E12
:10288800756F040E7E19D8B44CEF14F04EEF14F0A7
:102898006BEF14F0080E7E19D8B455EF14F057EF0B
:1028A80014F06BEF14F00C0E7E19D8B45EEF14F030
:1028B80060EF14F06BEF14F0100E7E19D8B467EFC8
:1028C80014F069EF14F06BEF14F0040E7E6F120031
:1028D80057EC1EF00009D8B474EF14F076EF14F03A
:1028E800B4EF14F084EF14F0B4EC1EF0D0EF14F051
:1028F800B0EC1EF0D0EF14F0A8EC1EF0D0EF14F0FE
:1029080012C1E6F013C1E7F021EE06F002D897EF06
:1029180014F00500FA6EDE50FD6EDE50FE6EF850C3
:10292800FF6EFA5012000001E86FE96BE951000AE6
:10293800D8B4A1EF14F080EF14F0E851010AD8B42C
:1029480080EF14F0030AD8B478EF14F0010AD8B471
:102958007CEF14F0070AD8B480EF14F080EF14F07D
:10296800010123911DC1D9FF1EC1DAFF1D4B1E2B8A
:10297800DF5093EC1EF001011F07D8A020071F515C
:102988002011D8A4CAEF14F0CCEF14F0CFEF14F054
:10299800060ED0EF14F0030E12002D0E476E51C034
:1029A8001EF0FD0E1E16D8A4DCEF14F0DEEF14F0B6
:1029B80020EF15F051C01EF0D8901E323F0E1E16A3
:1029C8001E50040D000EF3243E6E040EF4203F6EDC
:1029D8003EC03CF03FC03DF0040E3C183C6E3D50FC
:1029E8003D6E3EC0D9FF3FC0DAFFDF30E8320F0B43
:1029F8000D0AD8A402EF15F004EF15F01CEF15F03E
:102A0800300E016E040E026E20EE02F03E50D92602
:102A18003F50DA22DECF03F0DDCF04F0000E066E61
:102A2800080E056EC4EC1BF0FBEC17F02CEF15F04C
:102A380001EC1AF02CEF15F05150FD0B040AD8A444
:102A480028EF15F02AEF15F02CEF15F008EC12F02E
:102A58001200000E436E000E426E020E4B18D8A4F0
:102A680038EF15F03AEF15F05AEF15F020EE01F0B7
:102A78003C50D9263D50DA22100EDF6E20EE02F0CF
:102A88003C50D9263D50DA22400EDE6E040EDD6E33
:102A98003CC0D9FF3DC0DAFF480EDF6E3CC0D9FF0D
:102AA8003DC0DAFF000EDB8E86EF15F00001AA515B
:102AB8000401365D0001AB5104013759D8B067EF06
:102AC80015F069EF15F06DEF15F036C4AAF037C4AC
:102AD800ABF073EC10F0000120EE02F09A51D92609
:102AE8009B51DA22400EDE6E040EDD6E9AC0D9FFCD
:102AF8009BC0DAFF480EDF6E9AC0D9FF9BC0DAFF91
:102B0800000EDB8E1200066E000E076E040E086EB5
:102B18000150026E036AD890023603360650046EDE
:102B2800056AD89004360536D89004360536025022
:102B3800042603500522D89004360536D89004366A
:102B48000536045007260550082207C0D9FF08C0DB
:102B5800DAFFDF9E0150D8A4B4EF15F0B6EF15F0F8
:102B6800C4EF15F00650020DA00EF324D96E000E26
:102B7800F420DA6E07C0DEFF08C0DDFFD0EF15F0E5
:102B88000650020D9A0EF324D96E000EF420DA6E68
:102B980007C0DEFF08C0DDFF07C0D9FF08C0DAFFA5
:102BA800DF9C20EE04F00750D9260850DA22DF8C8B
:102BB8001200C3EC1EF01DC1D9FF1EC1DAFFDF6E83
:102BC80001011D4B1E2B1F07D8A020071F512011E4
:102BD800D8B4F1EF15F0F3EF15F0F8EF15F0BBEC02
:102BE8001EF0050E31EF16F0238703EF16F09CEC6C
:102BF8001EF031EF16F0A0EC1EF031EF16F00CC10C
:102C0800E6F00DC1E7F002D814EF16F00500FA6EF1
:102C18000051FD6E0151FE6EF850FF6EFA50120021
:102C28000001E86FE96BE951000AD8B41EEF16F00D
:102C3800FFEF15F0E851010AD8B4FFEF15F0030AC9
:102C4800D8B4FBEF15F0010AD8B4FBEF15F0070A6A
:102C5800D8B4FFEF15F0FFEF15F01200F20E0001E7
:102C6800FB6F010EFC6F060EFD6F280E96EC1CF034
:102C7800060AD8A442EF16F044EF16F07FEF16F0DC
:102C88000101F251F3C1F0F1F16BF0C1F1F1F06B18
:102C9800F011346EF151356EF451F5C1F0F1F16B6C
:102CA800F0C1F1F1F06BF011326EF151336EF65163
:102CB800F7C1F0F1F16BF0C1F1F1F06BF011306E8A
:102CC800F151316E0001D351D8B46DEF16F06FEFAA
:102CD80016F07FEF16F08E51345E8F51355A20EE84
:102CE80090F0DE50325EDD50335A20EE92F0DE5026
:102CF800305EDD50315A1200010E0001606F6B0E1C
:102D0800616F1E0E626F010E636F61C0D4F062C006
:102D1800D5F028EC07F0F9EC13F01BEC17F0CEEC2B
:102D280016F0B2EC17F00F0E83EC1DF00101EF6FF7
:102D38000F0E6FEC1DF00101F06FEF51F0C1FBF0C9
:102D48000001FC6BFBC0FCF0FB6BFB110101F16F98
:102D58000001FC510101F26F3D0EF11909E1680E05
:102D6800F219D8B4BAEF16F0BCEF16F0C3EF16F0AC
:102D7800000E0001FA6F000EF96FCDEF16F0F2ECBD
:102D880007F0E4EC0FF08DEC12F0F1C1F9F0F2C1AC
:102D9800FAF01200FCEF16F0F70E01018A6FCC0E64
:102DA8008B6F120E8C6F390E8D6F1AEF17F0240E81
:102DB80001018A6F0B0E8B6F980E8C6F390E8D6F19
:102DC8001AEF17F09F0E01018A6F710E8B6FE10EDB
:102DD8008C6F390E8D6F1AEF17F0240E01018A6F70
:102DE8000B0E8B6F180E8C6F3A0E8D6F1AEF17F053
:102DF80000017E51DD6FDE6BDE51000AD8B407EFAB
:102E080017F01AEF17F0DD51040AD8B4D0EF16F016
:102E18000C0AD8B4DBEF16F0040AD8B4E6EF16F0C3
:102E28001C0AD8B4F1EF16F01AEF17F012003BEFB6
:102E380017F0290EB06F5C0EB16F0F0EB26F3C0E1B
:102E4800B36F66EF17F0290EB06F5C0EB16F8F0E7F
:102E5800B26F3C0EB36F66EF17F0290EB06F5C0EC1
:102E6800B16F8F0EB26F3D0EB36F66EF17F020EEA5
:102E780065F0DECFDDF0DDCFDEF00001DE51000AC7
:102E8800D8B451EF17F0010AD8B458EF17F0060A72
:102E9800D8B45FEF17F066EF17F0DD51F50AD8B434
:102EA8001DEF17F066EF17F0DD51F40AD8B427EFDD
:102EB80017F066EF17F0DD51D00AD8B431EF17F0EC
:102EC80066EF17F012000001DD6F010E0001DE6FE2
:102ED800010123B572EF17F074EF17F0AFEF17F099
:102EE800DDC01CF12393238523910E0E216F010E63
:102EF8001B6FF40E1A6F2387920E006F3D0E016F41
:102F0800000E0C6F000E0D6F920E026F3D0E036FD8
:102F1800000E0E6F000E0F6F920E046F3D0E056FC0
:102F2800000E106F000E116F920E066F3D0E076FA8
:102F3800000E126F000E136F8E0E086F3D0E096F94
:102F4800000E146F000E156FD5EC1EF0E1EC1DF0AD
:102F5800000E0001DE6F0001DE511200DCEF17F0F9
:102F6800400EAC6FDA0EAD6F7F0EAE6F380EAF6FDE
:102F7800FAEF17F0400EAC6FDA0EAD6FFF0EAE6FC2
:102F8800380EAF6FFAEF17F0400EAC6FDA0EAD6F78
:102F98007F0EAE6F390EAF6FFAEF17F0B00EAC6F51
:102FA800E30EAD6F3F0EAE6F3A0EAF6FFAEF17F04C
:102FB80000017551DD6FDE6BDE51000AD8B4E7EF12
:102FC80017F0FAEF17F0DD51020AD8B4B4EF17F092
:102FD800060AD8B4BEEF17F00C0AD8B4C8EF17F039
:102FE800180AD8B4D2EF17F0FAEF17F01200000E53
:102FF8004C6E000E466E000E436E000E426E000EC2
:10300800486E000E4B6E9AC0D9FF9BC0DAFF7F0E48
:10301800DF16040E00019A199A6F9B519B6F9AC094
:10302800D9FF9BC0DAFF7F0EDF16040E9A199A6F3C
:103038009B519B6F3CC0D9FF3DC0DAFF7F0EDF1666
:10304800000EA96F000EAB6F000EAA6F000E896FFD
:10305800000E8B6F000E8A6F51EC0FF0000E0E6E93
:10306800030E0D6E000E0F6E000E106E000E126E27
:10307800000E116E87EC18F076EC0DF012000001CE
:10308800F16FEDC0F4F0EEC0F5F0EFC0F2F0F0C073
:10309800F3F00001F15167EC17F00009D8B457EFCD
:1030A80018F059EF18F04DEF18F0240E0001E26FF8
:1030B800380EE36FF20EE46F000EE56F36EC1EF08B
:1030C800EC0E0001DD6F000EDE6F000EE06F010EEA
:1030D800DF6FCFEC1DF0000E0001E26F000EE36F12
:1030E800000EE46F000EE56F2AEC1EF098EC1EF05F
:1030F8002AEC1DF0E806D8B484EF18F086EF18F033
:103108007CEF18F0120091EF18F012EC1BF0CAEFE8
:1031180018F082EC11F0CAEF18F00DC013F00EC0D1
:1031280014F01450000AD8B4A0EF18F07F0AD8B4ED
:10313800C3EF18F0CAEF18F01350010AD8B489EF9A
:1031480018F0030AD8B4CAEF18F0010AD8B48DEF02
:1031580018F0060AD8B4CAEF18F0770AD8B4CAEF3C
:1031680018F0010AD8B4CAEF18F0070AD8B4CAEFA1
:1031780018F0010AD8B4CAEF18F0CAEF18F01350C3
:10318800FF0AD8B4CAEF18F0CAEF18F0120000010D
:10319800ED6F000E0001EE6F0001ED5167EC17F0C6
:1031A8000009D8B4DAEF18F0DCEF18F0D0EF18F017
:1031B800F40E0001E26F390EE36FEE0EE46F000EBD
:1031C800E56F36EC1EF0EC0E0001DD6F000EDE6FD1
:1031D800000EE06F010EDF6FCFEC1DF0000E000156
:1031E800E26F000EE36F000EE46F000EE56F2AEC4D
:1031F8001EF098EC1EF02AEC1DF0E806D8B407EF94
:1032080019F009EF19F0FFEF18F00001EE51120064
:10321800010123871DEF19F0ACEC1EF04BEF19F0FC
:10322800C1EC1EF0030E4BEF19F0A8EC1EF04BEFAB
:1032380019F00CC1E6F00DC1E7F002D82EEF19F035
:103248000500FA6E0051FD6E0151FE6EF850FF6EDA
:10325800FA5012000001E86FE96BE951000AD8B48E
:1032680038EF19F019EF19F0E851010AD8B419EF3D
:1032780019F0030AD8B410EF19F0010AD8B410EF06
:1032880019F0070AD8B414EF19F019EF19F0120061
:103298000001E16F0001DD51DE11D8B456EF19F0DD
:1032A80058EF19F072EF19F0E151020D000EF324F6
:1032B800D96E010EF420DA6EDDC0DEFFDEC0DDFF60
:1032C800E151020D0C0EF324D96E010EF420DA6ED2
:1032D800DFC0DEFFE0C0DDFF8AEF19F0E151020D2B
:1032E800000EF324D96E010EF420DA6E920EDE6E13
:1032F8003D0EDD6EE151020D0C0EF324D96E010E68
:10330800F420DA6E000EDE6E000EDD6E1200000193
:10331800EE6F0001EE5167EC17F00009D8B497EF93
:1033280019F099EF19F08DEF19F0940E0001E26F82
:10333800390EE36FED0EE46F000EE56F36EC1EF00C
:10334800EC0E0001DD6F000EDE6F000EE06F010E67
:10335800DF6FCFEC1DF0000E0001E26F000EE36F8F
:10336800000EE46F000EE56F2AEC1EF098EC1EF0DC
:103378002AEC1DF0E806D8B4C4EF19F0C6EF19F02E
:10338800BCEF19F01200A3944E50D8B4CEEF19F048
:10339800D0EF19F0D3EF19F0A38400EF1AF0000E64
:1033A8000001E16FDDC0DFF0DEC0E0F0E12BE129D4
:1033B800D8A4E1EF19F0E3EF19F0E5EF19F0F5EF14
:1033C80019F0DFC0F6FFE0C0F7FFDF4BE02B080085
:1033D800F5500009D8A4F3EF19F0F5EF19F0DAEF7A
:1033E80019F0DDC0C1F0DEC0C2F0E1C0DAF0000EB5
:1033F800D96F010E4E6EA3841200020E4B18D8A48A
:1034080008EF1AF00AEF1AF00EEF1AF033EC0CF08E
:103418003AEF1AF0000E4B6E4850D8A416EF1AF087
:1034280018EF1AF038EF1AF020EE01F03C50D926C8
:103438003D50DA22100EDF6E20EE02F03C50D92605
:103448003D50DA22300EDE6E040EDD6E3CC0D9FF30
:103458003DC0DAFF0C0EDF6E3CC0D9FF3DC0DAFF7D
:10346800000EDB8E3AEF1AF0000E486E1200B00E16
:10347800F66E3D0EF76E000EF86E0900F5CFFEF001
:103488000900F5CFFFF0AE0EF66E3D0EF76E000E9A
:10349800F86E0900F5CF53F00900F5CF54F002EEAD
:1034A80000F0400EEE6AE806FDE101EE00F0EF0ED6
:1034B800EE6AE806FDE100EE60F07D0EEE6AE806D1
:1034C800FDE100EE2CF0270EEE6AE806FDE15590CE
:1034D8005592000EF86E0001B6EF0EF0010123912F
:1034E800020E226F80EF1AF0ACEC1EF0A8EF1AF073
:1034F800A8EC1EF0A8EF1AF010C1E6F011C1E7F031
:1035080021EE04F002D893EF1AF00500FA6EDE50AF
:10351800FD6EDE50FE6EF850FF6EFA50120000018C
:10352800E86FE96BE951000AD8B49DEF1AF07CEF17
:103538001AF0E851020AD8B478EF1AF0010AD8B4A0
:1035480078EF1AF07CEF1AF012005F0E0101D26FCB
:1035580034C0F7F035C0F8F09CEC1BF0F7C0D3F19D
:10356800F8C0D4F1F9C0D5F1FAC0D6F132C0F7F0FD
:1035780033C0F8F09CEC1BF0F7C0D7F1F8C0D8F1D5
:10358800F9C0D9F1FAC0DAF130C0F7F031C0F8F07B
:103598009CEC1BF0F7C0DBF1F8C0DCF1F9C0DDF101
:1035A800FAC0DEF1D20E0001DD6F010EDE6F0E0EE5
:1035B800DF6F59EC1DF01200D5EC1EF0010123A1BC
:1035C800E8EF1AF0EAEF1AF0F7EF1AF057EC1EF0EE
:1035D8000009D8B4F2EF1AF0F4EF1AF0F7EF1AF086
:1035E8000F0E0101216F01012151020D370EF32445
:1035F800F66E7E0EF420F76E02D80FEF1BF0050072
:10360800FA6E0900F550FD6E0900F550FE6EF8508F
:10361800FF6EFA5012000101216F1200000E010125
:10362800E86F4B0EE96F000EEA6F000EEB6F000EAD
:10363800EC6F000EED6F080EEE6F000E4F6E1A0E57
:10364800096E010EECEC1BF01E0E096E020EECEC7E
:103658001BF0000E016E400E026E050E036E400E4A
:10366800046E020E17EC0EF001C040F002C041F0EB
:10367800000E0001D06F000ED16F000E4E6E1200CA
:103688006AA049EF1BF04BEF1BF072EF1BF03EC036
:10369800D9FF3FC0DAFF800EDE18D8A456EF1BF022
:1036A80058EF1BF071EF1BF09AC0D9FF9BC0DAFFEF
:1036B800840EDE18D8A463EF1BF065EF1BF071EFE2
:1036C8001BF03EC0D9FF3FC0DAFF0C0EDF6E3EC0D4
:1036D800D9FF3FC0DAFF000EDB8E6A90659A1200B0
:1036E8000001EA6F010E0001EB6F010123B37FEFC8
:1036F8001BF081EF1BF099EF1BF02383000E0001F4
:10370800EB6FEA51D8B48BEF1BF08DEF1BF092EF03
:103718001BF0010E0101216F95EF1BF0020E010154
:10372800216FCFEC1EF002EC1EF00001EB511200ED
:10373800F7C0DDF0F8C0DEF00001000EDEBFFF0EBE
:10374800DF6FE06F010E4CEC06F0DDC0EBF0DEC081
:10375800ECF0DFC0EDF0E0C0EEF0ACC0EFF0ADC0D3
:10376800F0F0AEC0F1F0AFC0F2F049EC00F0EBC001
:10377800F7F0ECC0F8F0EDC0F9F0EEC0FAF0120086
:1037880003C009F004C00AF001C007F002C008F045
:10379800DEEF1BF009C0D9FF0AC0DAFFDF500B6E5D
:1037A800094A0A2A07C0D9FF08C0DAFF0BC0DFFFA1
:1037B800074A082A0506D8A00606052806E10628AD
:1037C800D8A4E9EF1BF0EBEF1BF0CEEF1BF01200D3
:1037D8000C6E09A4F2EF1BF0F4EF1BF0F9EF1BF0ED
:1037E800000E016E0C5087EC15F009A2FEEF1BF0DD
:1037F80000EF1CF005EF1CF0010E016E0C5087EC79
:1038080015F06A0E0C240A6E0B6A0F0E0B220AC002
:10381800D9FF0BC0DAFF09C0DFFF1200000120EE5C
:1038280002F0E651D926E751DA22DECFDDF0DDCF0E
:10383800DEF0E6C0D9FFE7C0DAFFDECFDFF0DDCF8C
:10384800E0F0CFEC1DF0000E0001E26F000EE36F18
:10385800000EE46F000EE56F36EC1EF0020E12004B
:103868004D50D8A43AEF1CF03CEF1CF054EF1CF07C
:10387800000E606E000E646E160E626E9F0E666E0F
:103888007B0E646EA584A3844BEF1CF0608660A653
:1038980050EF1CF052EF1CF04AEF1CF0010E4D6E79
:1038A8001200000E0001D76F000E0E6E740E0D6E22
:1038B800000E0F6E000E106E000E126E000E116ECE
:1038C80087EC18F0609264946BEF1CF0659465B413
:1038D80070EF1CF072EF1CF06AEF1CF0000E000194
:1038E800D66F1200000E8D6E000E8C6E000E896E63
:1038F800000E8A6E000E8B6E070E966EFD0E926E8F
:103908009368C70E946E95680F015E69C40E5D6F6B
:103918003C0E5C6F070E5F6F290E5B6F000E856EA5
:10392800F18E12000101EF6F00016005D8A49FEF2E
:103938001CF0A1EF1CF0AEEF1CF0EFC1F6F0FBC0DD
:10394800F7F0FCC0F8F0FDC0F9F0D451BDEC1DF063
:10395800AFEF1CF0FF0E1200010E0001B427000E9D
:10396800B523B623B723D751D8A4BDEF1CF0BFEFBA
:103978001CF0C9EF1CF0D62BD651D8A4C6EF1CF00A
:10398800C8EF1CF0C9EF1CF0D6691200E6C0DDF0E4
:10399800E7C0DEF0000E0001E06F010EDF6FCFEC34
:1039A8001DF0000E0001E26F000EE36F000EE46FE1
:1039B800000EE56F36EC1EF0040E1200E6C0DDF0D6
:1039C800E7C0DEF0000E0001E06F020EDF6FCFEC03
:1039D8001DF0000E0001E26F000EE36F000EE46FB1
:1039E800000EE56F36EC1EF0020E1200E6C0DDF0A8
:1039F800E7C0DEF0000E0001E06F010EDF6FCFECD4
:103A08001DF0000E0001E26F000EE36F000EE46F80
:103A1800000EE56F36EC1EF0020E1200E6C0DDF077
:103A2800E7C0DEF0000E0001E06F020EDF6FCFECA2
:103A38001DF0000E0001E26F000EE36F000EE46F50
:103A4800000EE56F36EC1EF0040E1200010E0001A8
:103A5800DD6F010123B333EF1DF035EF1DF03FEFAC
:103A68001DF023951C69D5EC1EF0D1EC1EF0D3ECAB
:103A78001EF022C1DDF00001DD511200648465985A
:103A88006082010E0001D76F000ED66F000E0E6E19
:103A9800750E0D6E000E0F6E000E106E000E126E7B
:103AA800000E116E87EC18F01200A3944E50D8A4A3
:103AB80060EF1DF062EF1DF06DEF1DF0DDC0C1F08D
:103AC800DEC0C2F0DFC0DAF0010E0001D96F010ECE
:103AD8004E6EA38412000001F26F00016005D8A4A5
:103AE80078EF1DF07AEF1DF081EF1DF0F2C0EFF0D6
:103AF800D4511EEC1EF082EF1DF0FF0E12000001E3
:103B0800F26F00016005D8A48CEF1DF08EEF1DF058
:103B180095EF1DF0F2C0EFF0D5511EEC1EF096EFB8
:103B28001DF0FF0E12000001F36F00016005D8A41C
:103B3800A0EF1DF0A2EF1DF0A9EF1DF0F3C0EFF00C
:103B4800F2C0F0F0D55142EC1EF012000001F36F04
:103B580000016005D8A4B3EF1DF0B5EF1DF0BCEF70
:103B68001DF0F3C0EFF0F2C0F0F0D45142EC1EF0BB
:103B780012000001FA6FF6C0ECF0F7C0EDF0F8C0E3
:103B8800EEF0F9C0EFF00001F06BFA5143EC18F0D9
:103B98000001F9511200010123A7D5EF1DF0D7EF5D
:103BA8001DF0E0EF1DF0DDC01DF1DEC01EF1DFC02D
:103BB8001FF1E0C020F123971200C6BAE6EF1DF00E
:103BC800E8EF1DF0F1EF1DF0000EC76E080EC66E8F
:103BD800000EC56E1D0EC86EC68A1200700ED36E1A
:103BE800000ED26E800E9B6E000EB56ED2AEFFEF49
:103BF8001DF001EF1EF0FAEF1DF0120008EF1EF0A5
:103C080069EC1EF0E0EC1AF0010123B30EEF1EF090
:103C180010EF1EF004EF1EF01200B8EC1EF04DEC91
:103C28001EF076EC1CF0F2EC1DF0E7EC0AF034EC38
:103C38001CF012000001F06FEFC0ECF00001F05131
:103C4800CBEC18F00001F16FF1511200E2C0DDF089
:103C5800E3C0DEF0E4C0DFF0E5C0E0F0020E4CECBB
:103C680019F01200E2C0DDF0E3C0DEF0E4C0DFF0DE
:103C7800E5C0E0F0000E4CEC19F012000001F16F05
:103C8800EFC0ECF0F0C0EDF00001F1518BEC19F051
:103C98001200000EC76E080EC66E000EC56E1D0E11
:103CA800C86EC69A1200C5BC5CEF1EF05FEF1EF02E
:103CB800010E60EF1EF0000E1200270E6FEC1DF0D3
:103CC8000001F36FF351010B12009EA66EEF1EF078
:103CD80070EF1EF069EF1EF01200010123811C51E4
:103CE8001C2593EC1EF0030E120001012381D880DD
:103CF8001C3593EC1EF0050E120001012393000EF3
:103D0800226F0E0E120001012391C5EC1EF0040E65
:103D1800120001012393000E226F0E0E1200000103
:103D2800DD6FDDC0C9FF1200000E74EC1BF012003D
:103D3800BEEC1EF0090E1200BEEC1EF00A0E1200B8
:103D4800BBEC1EF0050E1200CBEC1EF0000E1200AC
:103D5800CDEC1EF0010E1200CDEC1EF0020E12008A
:103D6800CDEC1EF0010E1200D08EA5841200C59A6B
:103D7800C5881200C58AC58812009E861200C950DF
:103D88001200C5861200050E1200010E1200C5842D
:103D98001200C5821200C58012009D961200C69AB4
:0A3DA80012009E9612000108D201DD
:107E3600001A3DF23CE23CD828BA2B0E3D183268B7
:107E46003D603D583D503D483D403D383D023DE496
:107E560034A9AAAA3E98CA4CBE0DF5113E4712DABD
:107E6600BD25AC7C3D6937AC3168212233B40F1493
:107E7600336821A2333863ED3EDA0F493F5E987BC3
:107E86003FDA0FC93F5E7F9F7E4E7F6042A20D2E76
:107E9600BDBBB3DB0F4940F97E5A0349006E007340
:107EA60000740069007400750074006F00200054AF
:107EB60000650063006E006F006C006F006700696C
:107EC6000063006F002000530075007000650072AB
:107ED6000069006F007200200064006500200054F5
:107EE6000065007A006900750074006C0061006E20
:107EF600002E0009024300020100C03209040000FE
:107F060001020201000524001001042402020524D6
:107F16000600010524010001070581030A00020984
:107F2600040100020A0000000705020240000007E3
:107F36000582024000001201000202000010D8046F
:107F46000A000001010200011003700061007200C6
:107F56006B00350030006E00040309045069746339
:107F66006820252E32662C20526F6C6C3A20252E06
:107F760032662C2048656164696E673A20252E3288
:107F860066200A004661696C656420746F20636F21
:107F96006D6D756E69636174652077697468204CD0
:107FA600534D394453312E0A00473A20252E326666
:107FB6002C20252E32662C20252E326620646567FD
:107FC6002F73200A004D3A20252E32662C20252EAE
:107FD60032662C20252E3266206761757373200A5F
:107FE60000413A20252E32662C20252E32662C2082
:0A7FF600252E32662067200A0000E5
:020000040020DA
:08000000FFFFFFFFFFFFFFFF00
:020000040030CA
:0E00000023285F3CFFD381FF0FC00FE00F40AD
:00000001FF
